:020000040000FA
:100000000C945D000C9485000C9485000C94850084
:100010000C9485000C9485000C9485000C9485004C
:100020000C9485000C9485000C9485000C9485003C
:100030000C9485000C9485000C9485000C9485002C
:100040000C94CF030C9485000C949D030C947703BF
:100050000C9485000C9485000C9485000C9485000C
:100060000C9485000C94850000000008000201003B
:100070000003040700000000000000000000000072
:10008000250028002B0000000000240027002A0083
:10009000040404040404040402020202020203032E
:1000A0000303030301020408102040800102040836
:1000B0001020010204081020190411241FBECFEFE4
:1000C000D8E0DEBFCDBF11E0A0E0B1E0E2E5FBE0AB
:1000D00002C005900D92AA3AB107D9F722E0AAEA28
:1000E000B1E001C01D92A836B207E1F710E0CDE5FE
:1000F000D0E004C02197FE010E94A105CC35D107B4
:10010000C9F70E9463040C94A7050C94000090E0CA
:10011000FC01EC55FF4F249180579F4FFC018491C7
:10012000882399F090E0880F991FFC01EA57FF4F50
:10013000A591B491FC01E458FF4F859194918FB73C
:10014000F894EC91E22BEC938FBF0895AF92BF929D
:10015000CF92DF92EF92FF920F931F93CF93DF9393
:100160006C017B018B01040F151FEB015E01AE18C2
:10017000BF08C017D10759F06991D601ED91FC91E4
:100180000190F081E02DC6010995892B79F7C50111
:10019000DF91CF911F910F91FF90EF90DF90CF9063
:1001A000BF90AF900895FC01538D448D252F30E012
:1001B000842F90E0821B930B541710F0CF96089574
:1001C00001970895FC01918D828D981761F0A28DA1
:1001D000AE0FBF2FB11D5D968C91928D9F5F9F7367
:1001E000928F90E008958FEF9FEF0895FC01918D1D
:1001F000828D981731F0828DE80FF11D858D90E08A
:1002000008958FEF9FEF0895FC01918D228D892F26
:1002100090E0805C9F4F821B91098F73992708950E
:1002200083EB91E00E94040121E0892B09F420E096
:10023000822F089580E090E0892B29F00E94100120
:1002400081110C9400000895FC01A48DA80FB92F12
:10025000B11DA35ABF4F2C91848D90E001968F73EE
:100260009927848FA689B7892C93A089B1898C910D
:10027000837080648C93938D848D981306C002885C
:10028000F389E02D80818F7D80830895EF92FF9226
:100290000F931F93CF93DF93EC0181E0888F9B8DA9
:1002A0008C8D98131AC0E889F989808185FF15C063
:1002B0009FB7F894EE89FF896083E889F989808186
:1002C0008370806480839FBF81E090E0DF91CF9155
:1002D0001F910F91FF90EF900895F62E0B8D10E077
:1002E0000F5F1F4F0F731127E02E8C8D8E110CC0E6
:1002F0000FB607FCFACFE889F989808185FFF5CF31
:10030000CE010E942401F1CFEB8DEC0FFD2FF11DEA
:10031000E35AFF4FF0829FB7F8940B8FEA89FB896D
:1003200080818062CFCFCF93DF93EC01888D8823CB
:10033000B9F0AA89BB89E889F9898C9185FD03C048
:10034000808186FD0DC00FB607FCF7CF8C9185FF2D
:10035000F2CF808185FFEDCFCE010E942401E9CF4D
:10036000DF91CF91089590E0FC01E859FF4F24916F
:10037000FC01EC55FF4F3491FC01E057FF4FE49135
:10038000EE23C9F0222339F0233001F1A8F4213003
:1003900019F1223029F1F0E0EE0FFF1FE458FF4F72
:1003A000A591B4918FB7F894EC91611126C0309566
:1003B0003E233C938FBF08952730A9F02830C9F021
:1003C000243049F7809180008F7D03C080918000A8
:1003D0008F7780938000DFCF84B58F7784BDDBCFAC
:1003E00084B58F7DFBCF8091B0008F778093B00074
:1003F000D2CF8091B0008F7DF9CF3E2BDACF089518
:1004000090E080E00895CF93DF93EC0160E08E816F
:100410000E94B30161E08E810E94B30160E08E8191
:100420000E94B3018BE891E00197F1F7DF91CF9142
:100430000895CF92DF92EF92FF920F931F93CF9385
:10044000DF936C017C0187E0E80EF11CD0E0C0E096
:10045000062F10E0B8010C2E02C0759567950A941E
:10046000E2F76170F70181917F010E94B30121964B
:10047000C430D10579F7C601DF91CF911F910F915B
:10048000FF90EF90DF90CF900C940302CF92DF9219
:10049000EF92FF920F931F93CF93DF93EC01F62E11
:1004A000642F8C810E94B3018D818F3F19F060E031
:1004B0000E94B3010F2D10E08F8584FF25C06E01CF
:1004C00087E0C80ED11CF12CE12CB8010E2C02C023
:1004D000759567950A94E2F76170F60181916F0155
:1004E0000E94B301FFEFEF1AFF0A88E0E816F1045B
:1004F00061F7CE01DF91CF911F910F91FF90EF90A7
:10050000DF90CF900C940302B80184E07595679555
:100510008A95E1F7CE010E9419026F2DCE01DF917D
:10052000CF911F910F91FF90EF90DF90CF900C949F
:10053000190240E0682F80E592E00C944602CF93C8
:10054000DF93823029F490915F02986090935F026C
:10055000809363021092640280E48093650280E1DC
:100560008093660280E580936702809154020E9426
:100570008700809155028F3F11F00E948700809183
:1005800056020E948700C0E5D2E09E01205532400D
:1005900080915F0284FD0AC084E090E021962817D4
:1005A00039073CF48E810E948700EFCF88E090E00D
:1005B000F5CF8BE39DE00197F1F760E08091540265
:1005C0000E94B30160E0809156020E94B3018091C5
:1005D00055028F3F19F060E00E94B30180915F02E5
:1005E00084FD39C063E080E592E00E941902CBE40B
:1005F000D6E4CE010197F1F763E080E592E00E9436
:1006000019022197F1F763E080E592E00E94190258
:1006100083E592E00197F1F762E080E592E00E94C5
:10062000190280915F0280620E94990284E08093A7
:1006300060028CE00E94990281E00E9499028BE3A3
:100640009FE10197F1F782E08093610286E0DF91FC
:10065000CF910C94990280620E9499028BE496E4F7
:100660000197F1F780915F0280620E94990283E511
:1006700092E00197F1F780915F0280620E949902F7
:10068000D0CF90916302891710F08FEF890FE82F78
:10069000F0E0E05BFD4F848980680C94990241E0B2
:1006A0000E94460281E090E00895FB010190002045
:1006B000E9F73197AF01461B570BDC01ED91FC9137
:1006C0000280F381E02D0994CF93DF93BC0183EB8B
:1006D00091E00E945503EC016EE171E083EB91E043
:1006E0000E9455038C0F9D1FDF91CF9108951F929B
:1006F0000F920FB60F9211242F933F934F935F9356
:100700006F937F938F939F93AF93BF93EF93FF93D9
:1007100083EB91E00E942401FF91EF91BF91AF9193
:100720009F918F917F916F915F914F913F912F9109
:100730000F900FBE0F901F9018951F920F920FB63B
:100740000F9211242F938F939F93EF93FF93E09138
:10075000C301F091C4018081E091C901F091CA0107
:1007600082FD1BC090818091CC018F5F8F7320919F
:10077000CD01821741F0E091CC01F0E0ED54FE4F45
:10078000958F8093CC01FF91EF919F918F912F9145
:100790000F900FBE0F901F9018958081F4CF1F927D
:1007A0000F920FB60F9211242F933F938F939F9325
:1007B000AF93BF938091AF019091B001A091B1012F
:1007C000B091B2013091AE0123E0230F2D3758F5DF
:1007D0000196A11DB11D2093AE018093AF019093AE
:1007E000B001A093B101B093B2018091AA019091A0
:1007F000AB01A091AC01B091AD010196A11DB11D5D
:100800008093AA019093AB01A093AC01B093AD018A
:10081000BF91AF919F918F913F912F910F900FBEFC
:100820000F901F90189526E8230F0296A11DB11D69
:10083000D2CFE3EBF1E01382128288EE93E0A0E0E6
:10084000B0E084839583A683B78384E091E09183AD
:10085000808385EC90E09587848784EC90E097878F
:10086000868780EC90E0918B808B81EC90E0938B7D
:10087000828B82EC90E0958B848B86EC90E0978B5A
:10088000868B118E128E138E148EE0E5F2E01382A9
:10089000128286E191E0918380838DE084838FEFE3
:1008A00085838CE086838BE087838AE0808789E07C
:1008B000818788E0828713861486158616861786B8
:1008C00081E00C949F02789484B5826084BD84B5E5
:1008D000816084BD85B5826085BD85B5816085BD3B
:1008E00080916E00816080936E00109281008091F3
:1008F000810082608093810080918100816080937B
:100900008100809180008160809380008091B1009F
:1009100084608093B1008091B00081608093B000CA
:1009200080917A00846080937A0080917A0082605E
:1009300080937A0080917A00816080937A00809120
:100940007A00806880937A001092C100E091C30120
:10095000F091C40182E08083E091BF01F091C00179
:100960001082E091C101F091C2018FEC808310925E
:10097000CB01E091C701F091C80186E08083E0914E
:10098000C501F091C601808180618083E091C5013D
:10099000F091C601808188608083E091C501F0916B
:1009A000C601808180688083E091C501F091C60115
:1009B00080818F7D808382E00E949F0280E00E9480
:1009C000410361E271E080E592E00E94550387E017
:1009D0000E94870083E00E9487008BE6C82E80E09B
:1009E000D82E0FE710E0DFE790E0E92E90E0F92E37
:1009F00083EB91E00E940401181619061CF583EBA5
:100A000091E00E94E200C82F682F83EB91E00E94E2
:100A100046016EE171E083EB91E00E945503C2361E
:100A2000D9F461E087E00E94B30186E391E00E947F
:100A3000640381E00E9441036FE371E080E592E08E
:100A40000E945503E114F10499F20E9410018823D9
:100A500079F20E940000CCCFC33671F460E087E0E9
:100A60000E94B30183E591E00E94640381E00E944B
:100A700041036DE571E0E2CFC63609F04EC083E078
:100A80000E948700F6018491833069F148F4813037
:100A9000B9F0823019F160E083E00E94B30114C024
:100AA000873059F1883089F18430A9F7809180002E
:100AB00080628093800010938B0000938A0004C0B2
:100AC00084B5806884BDD7BD82E791E00E9464034D
:100AD00081E00E9441036AE771E0B0CF84B5806293
:100AE00084BDD8BDF1CF8091800080688093800064
:100AF0001093890000938800E7CF8091B000806850
:100B00008093B000D093B300DFCF8091B0008062BB
:100B10008093B000D093B400D7CFCF3609F092CFF6
:100B200083E00E94870060E083E00E94B3018DE8CB
:100B300091E00E94640381E00E94410366E971E054
:100B40007DCFEE0FFF1F0590F491E02D0994F894EE
:100B5000FFCF000000004601A600D300930104016E
:100B6000E200F600000000004F03A6000002FF01B3
:100B70000D0A00486F6D65204175746F6D61746971
:100B80006F6E203A293D290042756C62206F6E20FD
:100B9000002020202042756C62204F6E20202020F3
:100BA000202020200042756C62204F6666200020C5
:100BB00020202042756C62204F6666202020202075
:100BC0002020200046616E204F6E20002020202033
:100BD00046616E204F6E20202020202020200046DD
:100BE000616E204F666620002020202046616E2026
:0C0BF0004F6666202020202020202000DE
:107E0000112484B714BE81FFF0D085E080938100F7
:107E100082E08093C00088E18093C10086E0809377
:107E2000C20080E18093C4008EE0C9D0259A86E02C
:107E300020E33CEF91E0309385002093840096BBD3
:107E4000B09BFECF1D9AA8958150A9F7CC24DD24C4
:107E500088248394B5E0AB2EA1E19A2EF3E0BF2EE7
:107E6000A2D0813461F49FD0082FAFD0023811F036
:107E7000013811F484E001C083E08DD089C08234E0
:107E800011F484E103C0853419F485E0A6D080C0E4
:107E9000853579F488D0E82EFF2485D0082F10E0AE
:107EA000102F00270E291F29000F111F8ED06801E7
:107EB0006FC0863521F484E090D080E0DECF843638
:107EC00009F040C070D06FD0082F6DD080E0C81688
:107ED00080E7D80618F4F601B7BEE895C0E0D1E017
:107EE00062D089930C17E1F7F0E0CF16F0E7DF06D8
:107EF00018F0F601B7BEE89568D007B600FCFDCFD4
:107F0000A601A0E0B1E02C9130E011968C91119780
:107F100090E0982F8827822B932B1296FA010C0160
:107F200087BEE89511244E5F5F4FF1E0A038BF0790
:107F300051F7F601A7BEE89507B600FCFDCF97BE46
:107F4000E89526C08437B1F42ED02DD0F82E2BD052
:107F50003CD0F601EF2C8F010F5F1F4F84911BD097
:107F6000EA94F801C1F70894C11CD11CFA94CF0C13
:107F7000D11C0EC0853739F428D08EE10CD085E9AC
:107F80000AD08FE07ACF813511F488E018D01DD067
:107F900080E101D065CF982F8091C00085FFFCCF94
:107FA0009093C60008958091C00087FFFCCF809118
:107FB000C00084FD01C0A8958091C6000895E0E648
:107FC000F0E098E1908380830895EDDF803219F02E
:107FD00088E0F5DFFFCF84E1DECF1F93182FE3DFCA
:107FE0001150E9F7F2DF1F91089580E0E8DFEE27F6
:047FF000FF270994CA
:027FFE00040479
:00000001FF
